{
  "_format": "hh-sol-artifact-1",
  "contractName": "MyEpicGame",
  "sourceName": "contracts/MyEpicGame.sol",
  "abi": [
    {
      "inputs": [
        {
          "components": [
            {
              "internalType": "uint256",
              "name": "index",
              "type": "uint256"
            },
            {
              "internalType": "string",
              "name": "name",
              "type": "string"
            },
            {
              "internalType": "string",
              "name": "imageURI",
              "type": "string"
            },
            {
              "internalType": "uint256",
              "name": "hp",
              "type": "uint256"
            },
            {
              "internalType": "uint256",
              "name": "maxHp",
              "type": "uint256"
            },
            {
              "internalType": "uint256",
              "name": "attackDamage",
              "type": "uint256"
            }
          ],
          "internalType": "struct MyEpicGame.CharacterAttributes[]",
          "name": "_defaultCharacters",
          "type": "tuple[]"
        }
      ],
      "stateMutability": "nonpayable",
      "type": "constructor"
    },
    {
      "anonymous": false,
      "inputs": [
        {
          "indexed": true,
          "internalType": "address",
          "name": "owner",
          "type": "address"
        },
        {
          "indexed": true,
          "internalType": "address",
          "name": "approved",
          "type": "address"
        },
        {
          "indexed": true,
          "internalType": "uint256",
          "name": "tokenId",
          "type": "uint256"
        }
      ],
      "name": "Approval",
      "type": "event"
    },
    {
      "anonymous": false,
      "inputs": [
        {
          "indexed": true,
          "internalType": "address",
          "name": "owner",
          "type": "address"
        },
        {
          "indexed": true,
          "internalType": "address",
          "name": "operator",
          "type": "address"
        },
        {
          "indexed": false,
          "internalType": "bool",
          "name": "approved",
          "type": "bool"
        }
      ],
      "name": "ApprovalForAll",
      "type": "event"
    },
    {
      "anonymous": false,
      "inputs": [
        {
          "indexed": false,
          "internalType": "uint256",
          "name": "newBossHp",
          "type": "uint256"
        },
        {
          "indexed": false,
          "internalType": "uint256",
          "name": "newPlayerHp",
          "type": "uint256"
        }
      ],
      "name": "AttackComplete",
      "type": "event"
    },
    {
      "anonymous": false,
      "inputs": [
        {
          "indexed": false,
          "internalType": "address",
          "name": "sender",
          "type": "address"
        },
        {
          "indexed": false,
          "internalType": "uint256",
          "name": "tokenID",
          "type": "uint256"
        },
        {
          "indexed": false,
          "internalType": "uint256",
          "name": "characterIndex",
          "type": "uint256"
        }
      ],
      "name": "CharacterNFTMinted",
      "type": "event"
    },
    {
      "anonymous": false,
      "inputs": [
        {
          "indexed": true,
          "internalType": "address",
          "name": "from",
          "type": "address"
        },
        {
          "indexed": true,
          "internalType": "address",
          "name": "to",
          "type": "address"
        },
        {
          "indexed": true,
          "internalType": "uint256",
          "name": "tokenId",
          "type": "uint256"
        }
      ],
      "name": "Transfer",
      "type": "event"
    },
    {
      "inputs": [
        {
          "internalType": "address",
          "name": "to",
          "type": "address"
        },
        {
          "internalType": "uint256",
          "name": "tokenId",
          "type": "uint256"
        }
      ],
      "name": "approve",
      "outputs": [],
      "stateMutability": "nonpayable",
      "type": "function"
    },
    {
      "inputs": [],
      "name": "attackBoss",
      "outputs": [],
      "stateMutability": "nonpayable",
      "type": "function"
    },
    {
      "inputs": [
        {
          "internalType": "address",
          "name": "owner",
          "type": "address"
        }
      ],
      "name": "balanceOf",
      "outputs": [
        {
          "internalType": "uint256",
          "name": "",
          "type": "uint256"
        }
      ],
      "stateMutability": "view",
      "type": "function"
    },
    {
      "inputs": [],
      "name": "boss",
      "outputs": [
        {
          "internalType": "uint256",
          "name": "index",
          "type": "uint256"
        },
        {
          "internalType": "string",
          "name": "name",
          "type": "string"
        },
        {
          "internalType": "string",
          "name": "imageURI",
          "type": "string"
        },
        {
          "internalType": "uint256",
          "name": "hp",
          "type": "uint256"
        },
        {
          "internalType": "uint256",
          "name": "maxHp",
          "type": "uint256"
        },
        {
          "internalType": "uint256",
          "name": "attackDamage",
          "type": "uint256"
        }
      ],
      "stateMutability": "view",
      "type": "function"
    },
    {
      "inputs": [],
      "name": "getAllDefaultCharacters",
      "outputs": [
        {
          "components": [
            {
              "internalType": "uint256",
              "name": "index",
              "type": "uint256"
            },
            {
              "internalType": "string",
              "name": "name",
              "type": "string"
            },
            {
              "internalType": "string",
              "name": "imageURI",
              "type": "string"
            },
            {
              "internalType": "uint256",
              "name": "hp",
              "type": "uint256"
            },
            {
              "internalType": "uint256",
              "name": "maxHp",
              "type": "uint256"
            },
            {
              "internalType": "uint256",
              "name": "attackDamage",
              "type": "uint256"
            }
          ],
          "internalType": "struct MyEpicGame.CharacterAttributes[]",
          "name": "",
          "type": "tuple[]"
        }
      ],
      "stateMutability": "view",
      "type": "function"
    },
    {
      "inputs": [
        {
          "internalType": "uint256",
          "name": "tokenId",
          "type": "uint256"
        }
      ],
      "name": "getApproved",
      "outputs": [
        {
          "internalType": "address",
          "name": "",
          "type": "address"
        }
      ],
      "stateMutability": "view",
      "type": "function"
    },
    {
      "inputs": [],
      "name": "getBoss",
      "outputs": [
        {
          "components": [
            {
              "internalType": "uint256",
              "name": "index",
              "type": "uint256"
            },
            {
              "internalType": "string",
              "name": "name",
              "type": "string"
            },
            {
              "internalType": "string",
              "name": "imageURI",
              "type": "string"
            },
            {
              "internalType": "uint256",
              "name": "hp",
              "type": "uint256"
            },
            {
              "internalType": "uint256",
              "name": "maxHp",
              "type": "uint256"
            },
            {
              "internalType": "uint256",
              "name": "attackDamage",
              "type": "uint256"
            }
          ],
          "internalType": "struct MyEpicGame.CharacterAttributes",
          "name": "",
          "type": "tuple"
        }
      ],
      "stateMutability": "view",
      "type": "function"
    },
    {
      "inputs": [
        {
          "internalType": "address",
          "name": "owner",
          "type": "address"
        },
        {
          "internalType": "address",
          "name": "operator",
          "type": "address"
        }
      ],
      "name": "isApprovedForAll",
      "outputs": [
        {
          "internalType": "bool",
          "name": "",
          "type": "bool"
        }
      ],
      "stateMutability": "view",
      "type": "function"
    },
    {
      "inputs": [
        {
          "internalType": "uint256",
          "name": "_characterIndex",
          "type": "uint256"
        }
      ],
      "name": "mintNFT",
      "outputs": [],
      "stateMutability": "nonpayable",
      "type": "function"
    },
    {
      "inputs": [],
      "name": "name",
      "outputs": [
        {
          "internalType": "string",
          "name": "",
          "type": "string"
        }
      ],
      "stateMutability": "view",
      "type": "function"
    },
    {
      "inputs": [
        {
          "internalType": "uint256",
          "name": "",
          "type": "uint256"
        }
      ],
      "name": "nftHolderAttributes",
      "outputs": [
        {
          "internalType": "uint256",
          "name": "index",
          "type": "uint256"
        },
        {
          "internalType": "string",
          "name": "name",
          "type": "string"
        },
        {
          "internalType": "string",
          "name": "imageURI",
          "type": "string"
        },
        {
          "internalType": "uint256",
          "name": "hp",
          "type": "uint256"
        },
        {
          "internalType": "uint256",
          "name": "maxHp",
          "type": "uint256"
        },
        {
          "internalType": "uint256",
          "name": "attackDamage",
          "type": "uint256"
        }
      ],
      "stateMutability": "view",
      "type": "function"
    },
    {
      "inputs": [
        {
          "internalType": "address",
          "name": "",
          "type": "address"
        }
      ],
      "name": "nftHolders",
      "outputs": [
        {
          "internalType": "uint256",
          "name": "",
          "type": "uint256"
        }
      ],
      "stateMutability": "view",
      "type": "function"
    },
    {
      "inputs": [
        {
          "internalType": "uint256",
          "name": "tokenId",
          "type": "uint256"
        }
      ],
      "name": "ownerOf",
      "outputs": [
        {
          "internalType": "address",
          "name": "",
          "type": "address"
        }
      ],
      "stateMutability": "view",
      "type": "function"
    },
    {
      "inputs": [
        {
          "internalType": "address",
          "name": "from",
          "type": "address"
        },
        {
          "internalType": "address",
          "name": "to",
          "type": "address"
        },
        {
          "internalType": "uint256",
          "name": "tokenId",
          "type": "uint256"
        }
      ],
      "name": "safeTransferFrom",
      "outputs": [],
      "stateMutability": "nonpayable",
      "type": "function"
    },
    {
      "inputs": [
        {
          "internalType": "address",
          "name": "from",
          "type": "address"
        },
        {
          "internalType": "address",
          "name": "to",
          "type": "address"
        },
        {
          "internalType": "uint256",
          "name": "tokenId",
          "type": "uint256"
        },
        {
          "internalType": "bytes",
          "name": "_data",
          "type": "bytes"
        }
      ],
      "name": "safeTransferFrom",
      "outputs": [],
      "stateMutability": "nonpayable",
      "type": "function"
    },
    {
      "inputs": [
        {
          "internalType": "address",
          "name": "operator",
          "type": "address"
        },
        {
          "internalType": "bool",
          "name": "approved",
          "type": "bool"
        }
      ],
      "name": "setApprovalForAll",
      "outputs": [],
      "stateMutability": "nonpayable",
      "type": "function"
    },
    {
      "inputs": [
        {
          "internalType": "bytes4",
          "name": "interfaceId",
          "type": "bytes4"
        }
      ],
      "name": "supportsInterface",
      "outputs": [
        {
          "internalType": "bool",
          "name": "",
          "type": "bool"
        }
      ],
      "stateMutability": "view",
      "type": "function"
    },
    {
      "inputs": [],
      "name": "symbol",
      "outputs": [
        {
          "internalType": "string",
          "name": "",
          "type": "string"
        }
      ],
      "stateMutability": "view",
      "type": "function"
    },
    {
      "inputs": [
        {
          "internalType": "uint256",
          "name": "_tokenID",
          "type": "uint256"
        }
      ],
      "name": "tokenURI",
      "outputs": [
        {
          "internalType": "string",
          "name": "",
          "type": "string"
        }
      ],
      "stateMutability": "view",
      "type": "function"
    },
    {
      "inputs": [
        {
          "internalType": "address",
          "name": "from",
          "type": "address"
        },
        {
          "internalType": "address",
          "name": "to",
          "type": "address"
        },
        {
          "internalType": "uint256",
          "name": "tokenId",
          "type": "uint256"
        }
      ],
      "name": "transferFrom",
      "outputs": [],
      "stateMutability": "nonpayable",
      "type": "function"
    },
    {
      "inputs": [],
      "name": "userHasNFT",
      "outputs": [
        {
          "components": [
            {
              "internalType": "uint256",
              "name": "index",
              "type": "uint256"
            },
            {
              "internalType": "string",
              "name": "name",
              "type": "string"
            },
            {
              "internalType": "string",
              "name": "imageURI",
              "type": "string"
            },
            {
              "internalType": "uint256",
              "name": "hp",
              "type": "uint256"
            },
            {
              "internalType": "uint256",
              "name": "maxHp",
              "type": "uint256"
            },
            {
              "internalType": "uint256",
              "name": "attackDamage",
              "type": "uint256"
            }
          ],
          "internalType": "struct MyEpicGame.CharacterAttributes",
          "name": "",
          "type": "tuple"
        }
      ],
      "stateMutability": "view",
      "type": "function"
    }
  ],
  "bytecode": "0x60806040523480156200001157600080fd5b506040516200538638038062005386833981810160405281019062000037919062000838565b6040518060400160405280600681526020017f4865726f657300000000000000000000000000000000000000000000000000008152506040518060400160405280600481526020017f4865726f000000000000000000000000000000000000000000000000000000008152508160009080519060200190620000bb92919062000565565b508060019080519060200190620000d492919062000565565b50505060005b60018251620000ea919062000a38565b8110156200023e5760008282815181106200012e577f4e487b7100000000000000000000000000000000000000000000000000000000600052603260045260246000fd5b6020026020010151905060098190806001815401808255809150506001900390600052602060002090600602016000909190919091506000820151816000015560208201518160010190805190602001906200018c92919062000565565b506040820151816002019080519060200190620001ab92919062000565565b50606082015181600301556080820151816004015560a082015181600501555050620002266040518060400160405280601f81526020017f496e697469616c697a656420257320772f2048502025732c20696d67202573008152508260200151836060015184604001516200047a60201b62001d561760201c565b50600181620002369190620009db565b9050620000da565b50806001825162000250919062000a38565b8151811062000288577f4e487b7100000000000000000000000000000000000000000000000000000000600052603260045260246000fd5b6020026020010151600a600082015181600001556020820151816001019080519060200190620002ba92919062000565565b506040820151816002019080519060200190620002d992919062000565565b50606082015181600301556080820151816004015560a082015181600501559050506200045c6040518060600160405280602481526020016200536260249139600a60010180546200032b9062000ab3565b80601f0160208091040260200160405190810160405280929190818152602001828054620003599062000ab3565b8015620003aa5780601f106200037e57610100808354040283529160200191620003aa565b820191906000526020600020905b8154815290600101906020018083116200038c57829003601f168201915b5050505050600a60030154600a6002018054620003c79062000ab3565b80601f0160208091040260200160405190810160405280929190818152602001828054620003f59062000ab3565b8015620004465780601f106200041a5761010080835404028352916020019162000446565b820191906000526020600020905b8154815290600101906020018083116200042857829003601f168201915b50505050506200047a60201b62001d561760201c565b6200047360066200052660201b62001df81760201c565b5062000bd7565b6200052084848484604051602401620004979493929190620008cf565b6040516020818303038152906040527f8d142cdd000000000000000000000000000000000000000000000000000000007bffffffffffffffffffffffffffffffffffffffffffffffffffffffff19166020820180517bffffffffffffffffffffffffffffffffffffffffffffffffffffffff83818316178352505050506200053c60201b60201c565b50505050565b6001816000016000828254019250508190555050565b60008151905060006a636f6e736f6c652e6c6f679050602083016000808483855afa5050505050565b828054620005739062000ab3565b90600052602060002090601f016020900481019282620005975760008555620005e3565b82601f10620005b257805160ff1916838001178555620005e3565b82800160010185558215620005e3579182015b82811115620005e2578251825591602001919060010190620005c5565b5b509050620005f29190620005f6565b5090565b5b8082111562000611576000816000905550600101620005f7565b5090565b60006200062c62000626846200095a565b62000931565b905080838252602082019050828560208602820111156200064c57600080fd5b60005b858110156200069b57815167ffffffffffffffff8111156200067057600080fd5b8086016200067f898262000744565b855260208501945060208401935050506001810190506200064f565b5050509392505050565b6000620006bc620006b68462000989565b62000931565b905082815260208101848484011115620006d557600080fd5b620006e284828562000a7d565b509392505050565b600082601f830112620006fc57600080fd5b81516200070e84826020860162000615565b91505092915050565b600082601f8301126200072957600080fd5b81516200073b848260208601620006a5565b91505092915050565b600060c082840312156200075757600080fd5b6200076360c062000931565b90506000620007758482850162000821565b600083015250602082015167ffffffffffffffff8111156200079657600080fd5b620007a48482850162000717565b602083015250604082015167ffffffffffffffff811115620007c557600080fd5b620007d38482850162000717565b6040830152506060620007e98482850162000821565b6060830152506080620007ff8482850162000821565b60808301525060a0620008158482850162000821565b60a08301525092915050565b600081519050620008328162000bbd565b92915050565b6000602082840312156200084b57600080fd5b600082015167ffffffffffffffff8111156200086657600080fd5b6200087484828501620006ea565b91505092915050565b60006200088a82620009bf565b620008968185620009ca565b9350620008a881856020860162000a7d565b620008b38162000bac565b840191505092915050565b620008c98162000a73565b82525050565b60006080820190508181036000830152620008eb81876200087d565b905081810360208301526200090181866200087d565b9050620009126040830185620008be565b81810360608301526200092681846200087d565b905095945050505050565b60006200093d62000950565b90506200094b828262000ae9565b919050565b6000604051905090565b600067ffffffffffffffff82111562000978576200097762000b7d565b5b602082029050602081019050919050565b600067ffffffffffffffff821115620009a757620009a662000b7d565b5b620009b28262000bac565b9050602081019050919050565b600081519050919050565b600082825260208201905092915050565b6000620009e88262000a73565b9150620009f58362000a73565b9250827fffffffffffffffffffffffffffffffffffffffffffffffffffffffffffffffff0382111562000a2d5762000a2c62000b1f565b5b828201905092915050565b600062000a458262000a73565b915062000a528362000a73565b92508282101562000a685762000a6762000b1f565b5b828203905092915050565b6000819050919050565b60005b8381101562000a9d57808201518184015260208101905062000a80565b8381111562000aad576000848401525b50505050565b6000600282049050600182168062000acc57607f821691505b6020821081141562000ae35762000ae262000b4e565b5b50919050565b62000af48262000bac565b810181811067ffffffffffffffff8211171562000b165762000b1562000b7d565b5b80604052505050565b7f4e487b7100000000000000000000000000000000000000000000000000000000600052601160045260246000fd5b7f4e487b7100000000000000000000000000000000000000000000000000000000600052602260045260246000fd5b7f4e487b7100000000000000000000000000000000000000000000000000000000600052604160045260246000fd5b6000601f19601f8301169050919050565b62000bc88162000a73565b811462000bd457600080fd5b50565b61477b8062000be76000396000f3fe608060405234801561001057600080fd5b50600436106101375760003560e01c806392642744116100b8578063b953084e1161007c578063b953084e14610363578063c76d9e7d14610381578063c772af391461039f578063c87b56dd146103c2578063d4f24c5b146103f2578063e985e9c5146103fc57610137565b806392642744146102bc57806395d89b41146102d857806398da4c95146102f6578063a22cb4651461032b578063b88d4fde1461034757610137565b806342842e0e116100ff57806342842e0e146101f25780636352211e1461020e57806370a082311461023e5780637a9959c41461026e5780637df124a11461028c57610137565b806301ffc9a71461013c57806306fdde031461016c578063081812fc1461018a578063095ea7b3146101ba57806323b872dd146101d6575b600080fd5b61015660048036038101906101519190612fe2565b61042c565b60405161016391906137ca565b60405180910390f35b61017461050e565b60405161018191906137e5565b60405180910390f35b6101a4600480360381019061019f9190613034565b6105a0565b6040516101b1919061370a565b60405180910390f35b6101d460048036038101906101cf9190612fa6565b610625565b005b6101f060048036038101906101eb9190612ea0565b61073d565b005b61020c60048036038101906102079190612ea0565b61079d565b005b61022860048036038101906102239190613034565b6107bd565b604051610235919061370a565b60405180910390f35b61025860048036038101906102539190612e3b565b61086f565b6040516102659190613b24565b60405180910390f35b610276610927565b6040516102839190613b02565b60405180910390f35b6102a660048036038101906102a19190612e3b565b610aff565b6040516102b39190613b24565b60405180910390f35b6102d660048036038101906102d19190613034565b610b17565b005b6102e0610f0b565b6040516102ed91906137e5565b60405180910390f35b610310600480360381019061030b9190613034565b610f9d565b60405161032296959493929190613b3f565b60405180910390f35b61034560048036038101906103409190612f6a565b6110e9565b005b610361600480360381019061035c9190612eef565b61126a565b005b61036b6112cc565b60405161037891906137a8565b60405180910390f35b610389611477565b6040516103969190613b02565b60405180910390f35b6103a76115dd565b6040516103b996959493929190613b3f565b60405180910390f35b6103dc60048036038101906103d79190613034565b611717565b6040516103e991906137e5565b60405180910390f35b6103fa611932565b005b61041660048036038101906104119190612e64565b611cc2565b60405161042391906137ca565b60405180910390f35b60007f80ac58cd000000000000000000000000000000000000000000000000000000007bffffffffffffffffffffffffffffffffffffffffffffffffffffffff1916827bffffffffffffffffffffffffffffffffffffffffffffffffffffffff191614806104f757507f5b5e139f000000000000000000000000000000000000000000000000000000007bffffffffffffffffffffffffffffffffffffffffffffffffffffffff1916827bffffffffffffffffffffffffffffffffffffffffffffffffffffffff1916145b80610507575061050682611e0e565b5b9050919050565b60606000805461051d90613e85565b80601f016020809104026020016040519081016040528092919081815260200182805461054990613e85565b80156105965780601f1061056b57610100808354040283529160200191610596565b820191906000526020600020905b81548152906001019060200180831161057957829003601f168201915b5050505050905090565b60006105ab82611e78565b6105ea576040517f08c379a00000000000000000000000000000000000000000000000000000000081526004016105e190613a82565b60405180910390fd5b6004600083815260200190815260200160002060009054906101000a900473ffffffffffffffffffffffffffffffffffffffff169050919050565b6000610630826107bd565b90508073ffffffffffffffffffffffffffffffffffffffff168373ffffffffffffffffffffffffffffffffffffffff1614156106a1576040517f08c379a000000000000000000000000000000000000000000000000000000000815260040161069890613ac2565b60405180910390fd5b8073ffffffffffffffffffffffffffffffffffffffff166106c0611ee4565b73ffffffffffffffffffffffffffffffffffffffff1614806106ef57506106ee816106e9611ee4565b611cc2565b5b61072e576040517f08c379a0000000000000000000000000000000000000000000000000000000008152600401610725906139e2565b60405180910390fd5b6107388383611eec565b505050565b61074e610748611ee4565b82611fa5565b61078d576040517f08c379a000000000000000000000000000000000000000000000000000000000815260040161078490613ae2565b60405180910390fd5b610798838383612083565b505050565b6107b88383836040518060200160405280600081525061126a565b505050565b6000806002600084815260200190815260200160002060009054906101000a900473ffffffffffffffffffffffffffffffffffffffff169050600073ffffffffffffffffffffffffffffffffffffffff168173ffffffffffffffffffffffffffffffffffffffff161415610866576040517f08c379a000000000000000000000000000000000000000000000000000000000815260040161085d90613a22565b60405180910390fd5b80915050919050565b60008073ffffffffffffffffffffffffffffffffffffffff168273ffffffffffffffffffffffffffffffffffffffff1614156108e0576040517f08c379a00000000000000000000000000000000000000000000000000000000081526004016108d790613a02565b60405180910390fd5b600360008373ffffffffffffffffffffffffffffffffffffffff1673ffffffffffffffffffffffffffffffffffffffff168152602001908152602001600020549050919050565b61092f612c91565b6000600760003373ffffffffffffffffffffffffffffffffffffffff1673ffffffffffffffffffffffffffffffffffffffff1681526020019081526020016000205490506000811115610aee57600860008281526020019081526020016000206040518060c0016040529081600082015481526020016001820180546109b490613e85565b80601f01602080910402602001604051908101604052809291908181526020018280546109e090613e85565b8015610a2d5780601f10610a0257610100808354040283529160200191610a2d565b820191906000526020600020905b815481529060010190602001808311610a1057829003601f168201915b50505050508152602001600282018054610a4690613e85565b80601f0160208091040260200160405190810160405280929190818152602001828054610a7290613e85565b8015610abf5780601f10610a9457610100808354040283529160200191610abf565b820191906000526020600020905b815481529060010190602001808311610aa257829003601f168201915b505050505081526020016003820154815260200160048201548152602001600582015481525050915050610afc565b610af6612c91565b80925050505b90565b60076020528060005260406000206000915090505481565b6000610b2360066122df565b9050610b2f33826122ed565b6040518060c0016040528083815260200160098481548110610b7a577f4e487b7100000000000000000000000000000000000000000000000000000000600052603260045260246000fd5b90600052602060002090600602016001018054610b9690613e85565b80601f0160208091040260200160405190810160405280929190818152602001828054610bc290613e85565b8015610c0f5780601f10610be457610100808354040283529160200191610c0f565b820191906000526020600020905b815481529060010190602001808311610bf257829003601f168201915b5050505050815260200160098481548110610c53577f4e487b7100000000000000000000000000000000000000000000000000000000600052603260045260246000fd5b90600052602060002090600602016002018054610c6f90613e85565b80601f0160208091040260200160405190810160405280929190818152602001828054610c9b90613e85565b8015610ce85780601f10610cbd57610100808354040283529160200191610ce8565b820191906000526020600020905b815481529060010190602001808311610ccb57829003601f168201915b5050505050815260200160098481548110610d2c577f4e487b7100000000000000000000000000000000000000000000000000000000600052603260045260246000fd5b906000526020600020906006020160030154815260200160098481548110610d7d577f4e487b7100000000000000000000000000000000000000000000000000000000600052603260045260246000fd5b906000526020600020906006020160040154815260200160098481548110610dce577f4e487b7100000000000000000000000000000000000000000000000000000000600052603260045260246000fd5b90600052602060002090600602016005015481525060086000838152602001908152602001600020600082015181600001556020820151816001019080519060200190610e1c929190612cc7565b506040820151816002019080519060200190610e39929190612cc7565b50606082015181600301556080820151816004015560a08201518160050155905050610e7e6040518060600160405280602e8152602001614674602e9139828461230b565b80600760003373ffffffffffffffffffffffffffffffffffffffff1673ffffffffffffffffffffffffffffffffffffffff16815260200190815260200160002081905550610ecc6006611df8565b7f4bc303fd457a97b4691b9af582ce71868a3d258638c8d4f8c60988a0f0bfb8cd338284604051610eff93929190613771565b60405180910390a15050565b606060018054610f1a90613e85565b80601f0160208091040260200160405190810160405280929190818152602001828054610f4690613e85565b8015610f935780601f10610f6857610100808354040283529160200191610f93565b820191906000526020600020905b815481529060010190602001808311610f7657829003601f168201915b5050505050905090565b6008602052806000526040600020600091509050806000015490806001018054610fc690613e85565b80601f0160208091040260200160405190810160405280929190818152602001828054610ff290613e85565b801561103f5780601f106110145761010080835404028352916020019161103f565b820191906000526020600020905b81548152906001019060200180831161102257829003601f168201915b50505050509080600201805461105490613e85565b80601f016020809104026020016040519081016040528092919081815260200182805461108090613e85565b80156110cd5780601f106110a2576101008083540402835291602001916110cd565b820191906000526020600020905b8154815290600101906020018083116110b057829003601f168201915b5050505050908060030154908060040154908060050154905086565b6110f1611ee4565b73ffffffffffffffffffffffffffffffffffffffff168273ffffffffffffffffffffffffffffffffffffffff16141561115f576040517f08c379a000000000000000000000000000000000000000000000000000000000815260040161115690613982565b60405180910390fd5b806005600061116c611ee4565b73ffffffffffffffffffffffffffffffffffffffff1673ffffffffffffffffffffffffffffffffffffffff16815260200190815260200160002060008473ffffffffffffffffffffffffffffffffffffffff1673ffffffffffffffffffffffffffffffffffffffff16815260200190815260200160002060006101000a81548160ff0219169083151502179055508173ffffffffffffffffffffffffffffffffffffffff16611219611ee4565b73ffffffffffffffffffffffffffffffffffffffff167f17307eab39ab6107e8899845ad3d59bd9653f200f220920489ca2b5937696c318360405161125e91906137ca565b60405180910390a35050565b61127b611275611ee4565b83611fa5565b6112ba576040517f08c379a00000000000000000000000000000000000000000000000000000000081526004016112b190613ae2565b60405180910390fd5b6112c6848484846123aa565b50505050565b60606009805480602002602001604051908101604052809291908181526020016000905b8282101561146e57838290600052602060002090600602016040518060c00160405290816000820154815260200160018201805461132d90613e85565b80601f016020809104026020016040519081016040528092919081815260200182805461135990613e85565b80156113a65780601f1061137b576101008083540402835291602001916113a6565b820191906000526020600020905b81548152906001019060200180831161138957829003601f168201915b505050505081526020016002820180546113bf90613e85565b80601f01602080910402602001604051908101604052809291908181526020018280546113eb90613e85565b80156114385780601f1061140d57610100808354040283529160200191611438565b820191906000526020600020905b81548152906001019060200180831161141b57829003601f168201915b505050505081526020016003820154815260200160048201548152602001600582015481525050815260200190600101906112f0565b50505050905090565b61147f612c91565b600a6040518060c0016040529081600082015481526020016001820180546114a690613e85565b80601f01602080910402602001604051908101604052809291908181526020018280546114d290613e85565b801561151f5780601f106114f45761010080835404028352916020019161151f565b820191906000526020600020905b81548152906001019060200180831161150257829003601f168201915b5050505050815260200160028201805461153890613e85565b80601f016020809104026020016040519081016040528092919081815260200182805461156490613e85565b80156115b15780601f10611586576101008083540402835291602001916115b1565b820191906000526020600020905b81548152906001019060200180831161159457829003601f168201915b505050505081526020016003820154815260200160048201548152602001600582015481525050905090565b600a8060000154908060010180546115f490613e85565b80601f016020809104026020016040519081016040528092919081815260200182805461162090613e85565b801561166d5780601f106116425761010080835404028352916020019161166d565b820191906000526020600020905b81548152906001019060200180831161165057829003601f168201915b50505050509080600201805461168290613e85565b80601f01602080910402602001604051908101604052809291908181526020018280546116ae90613e85565b80156116fb5780601f106116d0576101008083540402835291602001916116fb565b820191906000526020600020905b8154815290600101906020018083116116de57829003601f168201915b5050505050908060030154908060040154908060050154905086565b60606000600860008481526020019081526020016000206040518060c00160405290816000820154815260200160018201805461175390613e85565b80601f016020809104026020016040519081016040528092919081815260200182805461177f90613e85565b80156117cc5780601f106117a1576101008083540402835291602001916117cc565b820191906000526020600020905b8154815290600101906020018083116117af57829003601f168201915b505050505081526020016002820180546117e590613e85565b80601f016020809104026020016040519081016040528092919081815260200182805461181190613e85565b801561185e5780601f106118335761010080835404028352916020019161185e565b820191906000526020600020905b81548152906001019060200180831161184157829003601f168201915b505050505081526020016003820154815260200160048201548152602001600582015481525050905060006118968260600151612406565b905060006118a78360800151612406565b905060006118b88460a00151612406565b905060006118fe85602001516118cd89612406565b87604001518787876040516020016118ea96959493929190613643565b6040516020818303038152906040526125b3565b905060008160405160200161191391906136e8565b6040516020818303038152906040529050809650505050505050919050565b6000600760003373ffffffffffffffffffffffffffffffffffffffff1673ffffffffffffffffffffffffffffffffffffffff1681526020019081526020016000205490506000600860008381526020019081526020016000209050611a456040518060600160405280603c815260200161470a603c91398260010180546119b890613e85565b80601f01602080910402602001604051908101604052809291908181526020018280546119e490613e85565b8015611a315780601f10611a0657610100808354040283529160200191611a31565b820191906000526020600020905b815481529060010190602001808311611a1457829003601f168201915b505050505083600301548460050154612752565b611b1d6040518060400160405280601b81526020017f426f73732025732068617320257320485020616e642025732041440000000000815250600a6001018054611a8e90613e85565b80601f0160208091040260200160405190810160405280929190818152602001828054611aba90613e85565b8015611b075780601f10611adc57610100808354040283529160200191611b07565b820191906000526020600020905b815481529060010190602001808311611aea57829003601f168201915b5050505050600a60030154600a60050154612752565b6000816003015411611b64576040517f08c379a0000000000000000000000000000000000000000000000000000000008152600401611b5b90613a42565b60405180910390fd5b6000600a6003015411611bac576040517f08c379a0000000000000000000000000000000000000000000000000000000008152600401611ba3906139c2565b60405180910390fd5b8060050154600a600301541015611bcd576000600a60030181905550611bee565b8060050154600a6003016000828254611be69190613d9b565b925050819055505b600a6005015481600301541015611c0e5760008160030181905550611c2f565b600a60050154816003016000828254611c279190613d9b565b925050819055505b611c5660405180606001604052806025815260200161464f60259139600a600301546127f4565b611c7c6040518060600160405280602881526020016146e26028913982600301546127f4565b7f838ab28464562786a6c4ab2311964b82fa60bd9b14aa7e856af1f3f18d41a414600a600301548260030154604051611cb6929190613bae565b60405180910390a15050565b6000600560008473ffffffffffffffffffffffffffffffffffffffff1673ffffffffffffffffffffffffffffffffffffffff16815260200190815260200160002060008373ffffffffffffffffffffffffffffffffffffffff1673ffffffffffffffffffffffffffffffffffffffff16815260200190815260200160002060009054906101000a900460ff16905092915050565b611df284848484604051602401611d709493929190613807565b6040516020818303038152906040527f8d142cdd000000000000000000000000000000000000000000000000000000007bffffffffffffffffffffffffffffffffffffffffffffffffffffffff19166020820180517bffffffffffffffffffffffffffffffffffffffffffffffffffffffff8381831617835250505050612890565b50505050565b6001816000016000828254019250508190555050565b60007f01ffc9a7000000000000000000000000000000000000000000000000000000007bffffffffffffffffffffffffffffffffffffffffffffffffffffffff1916827bffffffffffffffffffffffffffffffffffffffffffffffffffffffff1916149050919050565b60008073ffffffffffffffffffffffffffffffffffffffff166002600084815260200190815260200160002060009054906101000a900473ffffffffffffffffffffffffffffffffffffffff1673ffffffffffffffffffffffffffffffffffffffff1614159050919050565b600033905090565b816004600083815260200190815260200160002060006101000a81548173ffffffffffffffffffffffffffffffffffffffff021916908373ffffffffffffffffffffffffffffffffffffffff160217905550808273ffffffffffffffffffffffffffffffffffffffff16611f5f836107bd565b73ffffffffffffffffffffffffffffffffffffffff167f8c5be1e5ebec7d5bd14f71427d1e84f3dd0314c0f7b2291e5b200ac8c7c3b92560405160405180910390a45050565b6000611fb082611e78565b611fef576040517f08c379a0000000000000000000000000000000000000000000000000000000008152600401611fe6906139a2565b60405180910390fd5b6000611ffa836107bd565b90508073ffffffffffffffffffffffffffffffffffffffff168473ffffffffffffffffffffffffffffffffffffffff16148061206957508373ffffffffffffffffffffffffffffffffffffffff16612051846105a0565b73ffffffffffffffffffffffffffffffffffffffff16145b8061207a57506120798185611cc2565b5b91505092915050565b8273ffffffffffffffffffffffffffffffffffffffff166120a3826107bd565b73ffffffffffffffffffffffffffffffffffffffff16146120f9576040517f08c379a00000000000000000000000000000000000000000000000000000000081526004016120f090613aa2565b60405180910390fd5b600073ffffffffffffffffffffffffffffffffffffffff168273ffffffffffffffffffffffffffffffffffffffff161415612169576040517f08c379a000000000000000000000000000000000000000000000000000000000815260040161216090613962565b60405180910390fd5b6121748383836128b9565b61217f600082611eec565b6001600360008573ffffffffffffffffffffffffffffffffffffffff1673ffffffffffffffffffffffffffffffffffffffff16815260200190815260200160002060008282546121cf9190613d9b565b925050819055506001600360008473ffffffffffffffffffffffffffffffffffffffff1673ffffffffffffffffffffffffffffffffffffffff16815260200190815260200160002060008282546122269190613cba565b92505081905550816002600083815260200190815260200160002060006101000a81548173ffffffffffffffffffffffffffffffffffffffff021916908373ffffffffffffffffffffffffffffffffffffffff160217905550808273ffffffffffffffffffffffffffffffffffffffff168473ffffffffffffffffffffffffffffffffffffffff167fddf252ad1be2c89b69c2b068fc378daa952ba7f163c4a11628f55a4df523b3ef60405160405180910390a4505050565b600081600001549050919050565b6123078282604051806020016040528060008152506128be565b5050565b6123a5838383604051602401612323939291906138e4565b6040516020818303038152906040527f969cdd03000000000000000000000000000000000000000000000000000000007bffffffffffffffffffffffffffffffffffffffffffffffffffffffff19166020820180517bffffffffffffffffffffffffffffffffffffffffffffffffffffffff8381831617835250505050612890565b505050565b6123b5848484612083565b6123c184848484612919565b612400576040517f08c379a00000000000000000000000000000000000000000000000000000000081526004016123f790613922565b60405180910390fd5b50505050565b6060600082141561244e576040518060400160405280600181526020017f300000000000000000000000000000000000000000000000000000000000000081525090506125ae565b600082905060005b6000821461248057808061246990613ee8565b915050600a826124799190613d10565b9150612456565b60008167ffffffffffffffff8111156124c2577f4e487b7100000000000000000000000000000000000000000000000000000000600052604160045260246000fd5b6040519080825280601f01601f1916602001820160405280156124f45781602001600182028036833780820191505090505b5090505b600085146125a75760018261250d9190613d9b565b9150600a8561251c9190613f31565b60306125289190613cba565b60f81b818381518110612564577f4e487b7100000000000000000000000000000000000000000000000000000000600052603260045260246000fd5b60200101907effffffffffffffffffffffffffffffffffffffffffffffffffffffffffffff1916908160001a905350600a856125a09190613d10565b94506124f8565b8093505050505b919050565b60606000825114156125d65760405180602001604052806000815250905061274d565b60006040518060600160405280604081526020016146a260409139905060006003600285516126059190613cba565b61260f9190613d10565b600461261b9190613d41565b9050600060208261262c9190613cba565b67ffffffffffffffff81111561266b577f4e487b7100000000000000000000000000000000000000000000000000000000600052604160045260246000fd5b6040519080825280601f01601f19166020018201604052801561269d5781602001600182028036833780820191505090505b509050818152600183018586518101602084015b8183101561270c576003830192508251603f8160121c168501518253600182019150603f81600c1c168501518253600182019150603f8160061c168501518253600182019150603f81168501518253600182019150506126b1565b600389510660018114612726576002811461273657612741565b613d3d60f01b6002830352612741565b603d60f81b60018303525b50505050508093505050505b919050565b6127ee8484848460405160240161276c9493929190613861565b6040516020818303038152906040527fd5cf17d0000000000000000000000000000000000000000000000000000000007bffffffffffffffffffffffffffffffffffffffffffffffffffffffff19166020820180517bffffffffffffffffffffffffffffffffffffffffffffffffffffffff8381831617835250505050612890565b50505050565b61288c828260405160240161280a9291906138b4565b6040516020818303038152906040527f9710a9d0000000000000000000000000000000000000000000000000000000007bffffffffffffffffffffffffffffffffffffffffffffffffffffffff19166020820180517bffffffffffffffffffffffffffffffffffffffffffffffffffffffff8381831617835250505050612890565b5050565b60008151905060006a636f6e736f6c652e6c6f679050602083016000808483855afa5050505050565b505050565b6128c88383612ab0565b6128d56000848484612919565b612914576040517f08c379a000000000000000000000000000000000000000000000000000000000815260040161290b90613922565b60405180910390fd5b505050565b600061293a8473ffffffffffffffffffffffffffffffffffffffff16612c7e565b15612aa3578373ffffffffffffffffffffffffffffffffffffffff1663150b7a02612963611ee4565b8786866040518563ffffffff1660e01b81526004016129859493929190613725565b602060405180830381600087803b15801561299f57600080fd5b505af19250505080156129d057506040513d601f19601f820116820180604052508101906129cd919061300b565b60015b612a53573d8060008114612a00576040519150601f19603f3d011682016040523d82523d6000602084013e612a05565b606091505b50600081511415612a4b576040517f08c379a0000000000000000000000000000000000000000000000000000000008152600401612a4290613922565b60405180910390fd5b805181602001fd5b63150b7a0260e01b7bffffffffffffffffffffffffffffffffffffffffffffffffffffffff1916817bffffffffffffffffffffffffffffffffffffffffffffffffffffffff191614915050612aa8565b600190505b949350505050565b600073ffffffffffffffffffffffffffffffffffffffff168273ffffffffffffffffffffffffffffffffffffffff161415612b20576040517f08c379a0000000000000000000000000000000000000000000000000000000008152600401612b1790613a62565b60405180910390fd5b612b2981611e78565b15612b69576040517f08c379a0000000000000000000000000000000000000000000000000000000008152600401612b6090613942565b60405180910390fd5b612b75600083836128b9565b6001600360008473ffffffffffffffffffffffffffffffffffffffff1673ffffffffffffffffffffffffffffffffffffffff1681526020019081526020016000206000828254612bc59190613cba565b92505081905550816002600083815260200190815260200160002060006101000a81548173ffffffffffffffffffffffffffffffffffffffff021916908373ffffffffffffffffffffffffffffffffffffffff160217905550808273ffffffffffffffffffffffffffffffffffffffff16600073ffffffffffffffffffffffffffffffffffffffff167fddf252ad1be2c89b69c2b068fc378daa952ba7f163c4a11628f55a4df523b3ef60405160405180910390a45050565b600080823b905060008111915050919050565b6040518060c001604052806000815260200160608152602001606081526020016000815260200160008152602001600081525090565b828054612cd390613e85565b90600052602060002090601f016020900481019282612cf55760008555612d3c565b82601f10612d0e57805160ff1916838001178555612d3c565b82800160010185558215612d3c579182015b82811115612d3b578251825591602001919060010190612d20565b5b509050612d499190612d4d565b5090565b5b80821115612d66576000816000905550600101612d4e565b5090565b6000612d7d612d7884613bfc565b613bd7565b905082815260208101848484011115612d9557600080fd5b612da0848285613e43565b509392505050565b600081359050612db7816145f2565b92915050565b600081359050612dcc81614609565b92915050565b600081359050612de181614620565b92915050565b600081519050612df681614620565b92915050565b600082601f830112612e0d57600080fd5b8135612e1d848260208601612d6a565b91505092915050565b600081359050612e3581614637565b92915050565b600060208284031215612e4d57600080fd5b6000612e5b84828501612da8565b91505092915050565b60008060408385031215612e7757600080fd5b6000612e8585828601612da8565b9250506020612e9685828601612da8565b9150509250929050565b600080600060608486031215612eb557600080fd5b6000612ec386828701612da8565b9350506020612ed486828701612da8565b9250506040612ee586828701612e26565b9150509250925092565b60008060008060808587031215612f0557600080fd5b6000612f1387828801612da8565b9450506020612f2487828801612da8565b9350506040612f3587828801612e26565b925050606085013567ffffffffffffffff811115612f5257600080fd5b612f5e87828801612dfc565b91505092959194509250565b60008060408385031215612f7d57600080fd5b6000612f8b85828601612da8565b9250506020612f9c85828601612dbd565b9150509250929050565b60008060408385031215612fb957600080fd5b6000612fc785828601612da8565b9250506020612fd885828601612e26565b9150509250929050565b600060208284031215612ff457600080fd5b600061300284828501612dd2565b91505092915050565b60006020828403121561301d57600080fd5b600061302b84828501612de7565b91505092915050565b60006020828403121561304657600080fd5b600061305484828501612e26565b91505092915050565b60006130698383613505565b905092915050565b61307a81613dcf565b82525050565b600061308b82613c3d565b6130958185613c6b565b9350836020820285016130a785613c2d565b8060005b858110156130e357848403895281516130c4858261305d565b94506130cf83613c5e565b925060208a019950506001810190506130ab565b50829750879550505050505092915050565b6130fe81613de1565b82525050565b600061310f82613c48565b6131198185613c7c565b9350613129818560208601613e52565b6131328161401e565b840191505092915050565b600061314882613c53565b6131528185613c8d565b9350613162818560208601613e52565b61316b8161401e565b840191505092915050565b600061318182613c53565b61318b8185613c9e565b935061319b818560208601613e52565b6131a48161401e565b840191505092915050565b60006131ba82613c53565b6131c48185613caf565b93506131d4818560208601613e52565b80840191505092915050565b60006131ed600b83613caf565b91506131f88261402f565b600b82019050919050565b6000613210603283613c9e565b915061321b82614058565b604082019050919050565b6000613233601c83613c9e565b915061323e826140a7565b602082019050919050565b6000613256600e83613caf565b9150613261826140d0565b600e82019050919050565b6000613279602483613c9e565b9150613284826140f9565b604082019050919050565b600061329c601983613c9e565b91506132a782614148565b602082019050919050565b60006132bf605d83613caf565b91506132ca82614171565b605d82019050919050565b60006132e2602c83613c9e565b91506132ed826141e6565b604082019050919050565b6000613305601683613c9e565b915061331082614235565b602082019050919050565b6000613328603883613c9e565b91506133338261425e565b604082019050919050565b600061334b602a83613c9e565b9150613356826142ad565b604082019050919050565b600061336e602983613c9e565b9150613379826142fc565b604082019050919050565b6000613391601b83613c9e565b915061339c8261434b565b602082019050919050565b60006133b4600483613caf565b91506133bf82614374565b600482019050919050565b60006133d7602083613c9e565b91506133e28261439d565b602082019050919050565b60006133fa602c83613c9e565b9150613405826143c6565b604082019050919050565b600061341d602983613c9e565b915061342882614415565b604082019050919050565b6000613440600a83613caf565b915061344b82614464565b600a82019050919050565b6000613463602183613c9e565b915061346e8261448d565b604082019050919050565b6000613486601d83613caf565b9150613491826144dc565b601d82019050919050565b60006134a9603183613c9e565b91506134b482614505565b604082019050919050565b60006134cc603d83613caf565b91506134d782614554565b603d82019050919050565b60006134ef602d83613caf565b91506134fa826145a3565b602d82019050919050565b600060c08301600083015161351d6000860182613625565b5060208301518482036020860152613535828261313d565b9150506040830151848203604086015261354f828261313d565b91505060608301516135646060860182613625565b5060808301516135776080860182613625565b5060a083015161358a60a0860182613625565b508091505092915050565b600060c0830160008301516135ad6000860182613625565b50602083015184820360208601526135c5828261313d565b915050604083015184820360408601526135df828261313d565b91505060608301516135f46060860182613625565b5060808301516136076080860182613625565b5060a083015161361a60a0860182613625565b508091505092915050565b61362e81613e39565b82525050565b61363d81613e39565b82525050565b600061364e82613433565b915061365a82896131af565b9150613665826131e0565b915061367182886131af565b915061367c826132b2565b915061368882876131af565b9150613693826134bf565b915061369f82866131af565b91506136aa82613249565b91506136b682856131af565b91506136c1826134e2565b91506136cd82846131af565b91506136d8826133a7565b9150819050979650505050505050565b60006136f382613479565b91506136ff82846131af565b915081905092915050565b600060208201905061371f6000830184613071565b92915050565b600060808201905061373a6000830187613071565b6137476020830186613071565b6137546040830185613634565b81810360608301526137668184613104565b905095945050505050565b60006060820190506137866000830186613071565b6137936020830185613634565b6137a06040830184613634565b949350505050565b600060208201905081810360008301526137c28184613080565b905092915050565b60006020820190506137df60008301846130f5565b92915050565b600060208201905081810360008301526137ff8184613176565b905092915050565b600060808201905081810360008301526138218187613176565b905081810360208301526138358186613176565b90506138446040830185613634565b81810360608301526138568184613176565b905095945050505050565b6000608082019050818103600083015261387b8187613176565b9050818103602083015261388f8186613176565b905061389e6040830185613634565b6138ab6060830184613634565b95945050505050565b600060408201905081810360008301526138ce8185613176565b90506138dd6020830184613634565b9392505050565b600060608201905081810360008301526138fe8186613176565b905061390d6020830185613634565b61391a6040830184613634565b949350505050565b6000602082019050818103600083015261393b81613203565b9050919050565b6000602082019050818103600083015261395b81613226565b9050919050565b6000602082019050818103600083015261397b8161326c565b9050919050565b6000602082019050818103600083015261399b8161328f565b9050919050565b600060208201905081810360008301526139bb816132d5565b9050919050565b600060208201905081810360008301526139db816132f8565b9050919050565b600060208201905081810360008301526139fb8161331b565b9050919050565b60006020820190508181036000830152613a1b8161333e565b9050919050565b60006020820190508181036000830152613a3b81613361565b9050919050565b60006020820190508181036000830152613a5b81613384565b9050919050565b60006020820190508181036000830152613a7b816133ca565b9050919050565b60006020820190508181036000830152613a9b816133ed565b9050919050565b60006020820190508181036000830152613abb81613410565b9050919050565b60006020820190508181036000830152613adb81613456565b9050919050565b60006020820190508181036000830152613afb8161349c565b9050919050565b60006020820190508181036000830152613b1c8184613595565b905092915050565b6000602082019050613b396000830184613634565b92915050565b600060c082019050613b546000830189613634565b8181036020830152613b668188613176565b90508181036040830152613b7a8187613176565b9050613b896060830186613634565b613b966080830185613634565b613ba360a0830184613634565b979650505050505050565b6000604082019050613bc36000830185613634565b613bd06020830184613634565b9392505050565b6000613be1613bf2565b9050613bed8282613eb7565b919050565b6000604051905090565b600067ffffffffffffffff821115613c1757613c16613fef565b5b613c208261401e565b9050602081019050919050565b6000819050602082019050919050565b600081519050919050565b600081519050919050565b600081519050919050565b6000602082019050919050565b600082825260208201905092915050565b600082825260208201905092915050565b600082825260208201905092915050565b600082825260208201905092915050565b600081905092915050565b6000613cc582613e39565b9150613cd083613e39565b9250827fffffffffffffffffffffffffffffffffffffffffffffffffffffffffffffffff03821115613d0557613d04613f62565b5b828201905092915050565b6000613d1b82613e39565b9150613d2683613e39565b925082613d3657613d35613f91565b5b828204905092915050565b6000613d4c82613e39565b9150613d5783613e39565b9250817fffffffffffffffffffffffffffffffffffffffffffffffffffffffffffffffff0483118215151615613d9057613d8f613f62565b5b828202905092915050565b6000613da682613e39565b9150613db183613e39565b925082821015613dc457613dc3613f62565b5b828203905092915050565b6000613dda82613e19565b9050919050565b60008115159050919050565b60007fffffffff0000000000000000000000000000000000000000000000000000000082169050919050565b600073ffffffffffffffffffffffffffffffffffffffff82169050919050565b6000819050919050565b82818337600083830152505050565b60005b83811015613e70578082015181840152602081019050613e55565b83811115613e7f576000848401525b50505050565b60006002820490506001821680613e9d57607f821691505b60208210811415613eb157613eb0613fc0565b5b50919050565b613ec08261401e565b810181811067ffffffffffffffff82111715613edf57613ede613fef565b5b80604052505050565b6000613ef382613e39565b91507fffffffffffffffffffffffffffffffffffffffffffffffffffffffffffffffff821415613f2657613f25613f62565b5b600182019050919050565b6000613f3c82613e39565b9150613f4783613e39565b925082613f5757613f56613f91565b5b828206905092915050565b7f4e487b7100000000000000000000000000000000000000000000000000000000600052601160045260246000fd5b7f4e487b7100000000000000000000000000000000000000000000000000000000600052601260045260246000fd5b7f4e487b7100000000000000000000000000000000000000000000000000000000600052602260045260246000fd5b7f4e487b7100000000000000000000000000000000000000000000000000000000600052604160045260246000fd5b6000601f19601f8301169050919050565b7f202d2d204e465420233a20000000000000000000000000000000000000000000600082015250565b7f4552433732313a207472616e7366657220746f206e6f6e20455243373231526560008201527f63656976657220696d706c656d656e7465720000000000000000000000000000602082015250565b7f4552433732313a20746f6b656e20616c7265616479206d696e74656400000000600082015250565b7f2c20226d61785f76616c7565223a000000000000000000000000000000000000600082015250565b7f4552433732313a207472616e7366657220746f20746865207a65726f2061646460008201527f7265737300000000000000000000000000000000000000000000000000000000602082015250565b7f4552433732313a20617070726f766520746f2063616c6c657200000000000000600082015250565b7f222c20226465736372697074696f6e223a20225468697320697320616e204e4660008201527f542074686174206c6574732070656f706c6520706c617920696e20746865206760208201527f616d65204d657461706f6b656d6f6e21222c2022696d616765223a2022000000604082015250565b7f4552433732313a206f70657261746f7220717565727920666f72206e6f6e657860008201527f697374656e7420746f6b656e0000000000000000000000000000000000000000602082015250565b7f4572726f723a20626f737320686173206e6f2048502100000000000000000000600082015250565b7f4552433732313a20617070726f76652063616c6c6572206973206e6f74206f7760008201527f6e6572206e6f7220617070726f76656420666f7220616c6c0000000000000000602082015250565b7f4552433732313a2062616c616e636520717565727920666f7220746865207a6560008201527f726f206164647265737300000000000000000000000000000000000000000000602082015250565b7f4552433732313a206f776e657220717565727920666f72206e6f6e657869737460008201527f656e7420746f6b656e0000000000000000000000000000000000000000000000602082015250565b7f4572726f723a2063686172616374657220686173206e6f204850210000000000600082015250565b7f7d205d7d00000000000000000000000000000000000000000000000000000000600082015250565b7f4552433732313a206d696e7420746f20746865207a65726f2061646472657373600082015250565b7f4552433732313a20617070726f76656420717565727920666f72206e6f6e657860008201527f697374656e7420746f6b656e0000000000000000000000000000000000000000602082015250565b7f4552433732313a207472616e73666572206f6620746f6b656e2074686174206960008201527f73206e6f74206f776e0000000000000000000000000000000000000000000000602082015250565b7f7b226e616d65223a202200000000000000000000000000000000000000000000600082015250565b7f4552433732313a20617070726f76616c20746f2063757272656e74206f776e6560008201527f7200000000000000000000000000000000000000000000000000000000000000602082015250565b7f646174613a6170706c69636174696f6e2f6a736f6e3b6261736536342c000000600082015250565b7f4552433732313a207472616e736665722063616c6c6572206973206e6f74206f60008201527f776e6572206e6f7220617070726f766564000000000000000000000000000000602082015250565b7f222c202261747472696275746573223a205b207b202274726169745f7479706560008201527f223a20224865616c746820506f696e7473222c202276616c7565223a20000000602082015250565b7f7d2c207b202274726169745f74797065223a202241747461636b2044616d616760008201527f65222c202276616c7565223a2000000000000000000000000000000000000000602082015250565b6145fb81613dcf565b811461460657600080fd5b50565b61461281613de1565b811461461d57600080fd5b50565b61462981613ded565b811461463457600080fd5b50565b61464081613e39565b811461464b57600080fd5b5056fe506c617965722061747461636b656420626f73732e204e657720626f73732068703a2025734d696e746564204e465420772f20746f6b656e494420257320616e6420636861726163746572496e6465782025734142434445464748494a4b4c4d4e4f505152535455565758595a6162636465666768696a6b6c6d6e6f707172737475767778797a303132333435363738392b2f426f73732061747461636b656420706c617965722e204e657720706c617965722068703a2025730a0a506c6179657220772f206368617261637465722025732061626f757420746f2061747461636b2e2048617320257320485020616e64202573204144a26469706673582212205e6406bae79053fd4ceeea43bbd11f7d8d65c866a082e3bab45f1c52c371840d64736f6c63430008040033496e697469616c697a656420626f737320257320772f2048502025732c20696d67202573",
  "linkReferences": {},
  "deployedLinkReferences": {}
}